{
  "_format": "hh-sol-artifact-1",
  "contractName": "CreateTask",
  "sourceName": "contracts/Task.sol",
  "abi": [
    {
      "anonymous": false,
      "inputs": [
        {
          "indexed": false,
          "internalType": "address",
          "name": "user",
          "type": "address"
        },
        {
          "indexed": false,
          "internalType": "uint256",
          "name": "index",
          "type": "uint256"
        }
      ],
      "name": "DoneTask",
      "type": "event"
    },
    {
      "anonymous": false,
      "inputs": [
        {
          "indexed": false,
          "internalType": "address",
          "name": "user",
          "type": "address"
        },
        {
          "indexed": false,
          "internalType": "uint256",
          "name": "due",
          "type": "uint256"
        },
        {
          "indexed": false,
          "internalType": "string",
          "name": "content",
          "type": "string"
        },
        {
          "indexed": false,
          "internalType": "uint256",
          "name": "bounty",
          "type": "uint256"
        },
        {
          "indexed": false,
          "internalType": "bool",
          "name": "done",
          "type": "bool"
        }
      ],
      "name": "NewTask",
      "type": "event"
    },
    {
      "inputs": [
        {
          "internalType": "address",
          "name": "_user",
          "type": "address"
        },
        {
          "internalType": "uint256",
          "name": "_due",
          "type": "uint256"
        },
        {
          "internalType": "string",
          "name": "_content",
          "type": "string"
        }
      ],
      "name": "createTask",
      "outputs": [],
      "stateMutability": "payable",
      "type": "function"
    },
    {
      "inputs": [],
      "name": "getAllTasks",
      "outputs": [
        {
          "components": [
            {
              "internalType": "address",
              "name": "user",
              "type": "address"
            },
            {
              "internalType": "uint256",
              "name": "due",
              "type": "uint256"
            },
            {
              "internalType": "string",
              "name": "content",
              "type": "string"
            },
            {
              "internalType": "uint256",
              "name": "bounty",
              "type": "uint256"
            },
            {
              "internalType": "bool",
              "name": "done",
              "type": "bool"
            }
          ],
          "internalType": "struct CreateTask.Task[]",
          "name": "",
          "type": "tuple[]"
        }
      ],
      "stateMutability": "view",
      "type": "function"
    },
    {
      "inputs": [
        {
          "internalType": "uint256",
          "name": "_index",
          "type": "uint256"
        },
        {
          "internalType": "address",
          "name": "_riwarder",
          "type": "address"
        }
      ],
      "name": "sendRiward",
      "outputs": [],
      "stateMutability": "payable",
      "type": "function"
    },
    {
      "inputs": [
        {
          "internalType": "uint256",
          "name": "",
          "type": "uint256"
        }
      ],
      "name": "tasks",
      "outputs": [
        {
          "internalType": "address",
          "name": "user",
          "type": "address"
        },
        {
          "internalType": "uint256",
          "name": "due",
          "type": "uint256"
        },
        {
          "internalType": "string",
          "name": "content",
          "type": "string"
        },
        {
          "internalType": "uint256",
          "name": "bounty",
          "type": "uint256"
        },
        {
          "internalType": "bool",
          "name": "done",
          "type": "bool"
        }
      ],
      "stateMutability": "view",
      "type": "function"
    },
    {
      "inputs": [
        {
          "internalType": "uint256",
          "name": "_index",
          "type": "uint256"
        }
      ],
      "name": "viewTask",
      "outputs": [
        {
          "internalType": "address",
          "name": "",
          "type": "address"
        },
        {
          "internalType": "uint256",
          "name": "",
          "type": "uint256"
        },
        {
          "internalType": "string",
          "name": "",
          "type": "string"
        },
        {
          "internalType": "uint256",
          "name": "",
          "type": "uint256"
        }
      ],
      "stateMutability": "view",
      "type": "function"
    }
  ],
  "bytecode": "0x608060405234801561001057600080fd5b506110a9806100206000396000f3fe60806040526004361061004a5760003560e01c80633b3d7e561461004f57806373db06a11461008f578063779900b4146100ab5780638d977672146100d6578063dd06bf9514610117575b600080fd5b34801561005b57600080fd5b5061007660048036038101906100719190610a5b565b610133565b6040516100869493929190610ce6565b60405180910390f35b6100a960048036038101906100a491906109f4565b610323565b005b3480156100b757600080fd5b506100c0610476565b6040516100cd9190610d8c565b60405180910390f35b3480156100e257600080fd5b506100fd60048036038101906100f89190610a5b565b6105ec565b60405161010e959493929190610d32565b60405180910390f35b610131600480360381019061012c9190610a84565b6106e7565b005b60008060606000808581548110610173577f4e487b7100000000000000000000000000000000000000000000000000000000600052603260045260246000fd5b906000526020600020906005020160000160009054906101000a900473ffffffffffffffffffffffffffffffffffffffff16600086815481106101df577f4e487b7100000000000000000000000000000000000000000000000000000000600052603260045260246000fd5b9060005260206000209060050201600101546000878154811061022b577f4e487b7100000000000000000000000000000000000000000000000000000000600052603260045260246000fd5b906000526020600020906005020160020160008881548110610276577f4e487b7100000000000000000000000000000000000000000000000000000000600052603260045260246000fd5b90600052602060002090600502016003015481805461029490610f4a565b80601f01602080910402602001604051908101604052809291908181526020018280546102c090610f4a565b801561030d5780601f106102e25761010080835404028352916020019161030d565b820191906000526020600020905b8154815290600101906020018083116102f057829003601f168201915b5050505050915093509350935093509193509193565b33925060003490506000806040518060a001604052808773ffffffffffffffffffffffffffffffffffffffff168152602001868152602001858152602001848152602001831515815250908060018154018082558091505060019003906000526020600020906005020160009091909190915060008201518160000160006101000a81548173ffffffffffffffffffffffffffffffffffffffff021916908373ffffffffffffffffffffffffffffffffffffffff1602179055506020820151816001015560408201518160020190805190602001906104039291906108bf565b506060820151816003015560808201518160040160006101000a81548160ff02191690831515021790555050507f5871a8657186643882832fdeda0bfb3277984f8149b007b4867cb677ca4b77128585858585604051610467959493929190610d32565b60405180910390a15050505050565b60606000805480602002602001604051908101604052809291908181526020016000905b828210156105e357838290600052602060002090600502016040518060a00160405290816000820160009054906101000a900473ffffffffffffffffffffffffffffffffffffffff1673ffffffffffffffffffffffffffffffffffffffff1673ffffffffffffffffffffffffffffffffffffffff1681526020016001820154815260200160028201805461052d90610f4a565b80601f016020809104026020016040519081016040528092919081815260200182805461055990610f4a565b80156105a65780601f1061057b576101008083540402835291602001916105a6565b820191906000526020600020905b81548152906001019060200180831161058957829003601f168201915b50505050508152602001600382015481526020016004820160009054906101000a900460ff1615151515815250508152602001906001019061049a565b50505050905090565b600081815481106105fc57600080fd5b90600052602060002090600502016000915090508060000160009054906101000a900473ffffffffffffffffffffffffffffffffffffffff169080600101549080600201805461064b90610f4a565b80601f016020809104026020016040519081016040528092919081815260200182805461067790610f4a565b80156106c45780601f10610699576101008083540402835291602001916106c4565b820191906000526020600020905b8154815290600101906020018083116106a757829003601f168201915b5050505050908060030154908060040160009054906101000a900460ff16905085565b6000151560008381548110610725577f4e487b7100000000000000000000000000000000000000000000000000000000600052603260045260246000fd5b906000526020600020906005020160040160009054906101000a900460ff16151514610786576040517f08c379a000000000000000000000000000000000000000000000000000000000815260040161077d90610dae565b60405180910390fd5b60008190508073ffffffffffffffffffffffffffffffffffffffff166108fc600085815481106107df577f4e487b7100000000000000000000000000000000000000000000000000000000600052603260045260246000fd5b9060005260206000209060050201600301549081150290604051600060405180830381858888f1935050505015801561081c573d6000803e3d6000fd5b50600160008481548110610859577f4e487b7100000000000000000000000000000000000000000000000000000000600052603260045260246000fd5b906000526020600020906005020160040160006101000a81548160ff0219169083151502179055507f6b9a28a11a6bf92d623d54370d7b04d29ef809d44684f18d1ac4fdc2fc1b93ef81846040516108b2929190610cbd565b60405180910390a1505050565b8280546108cb90610f4a565b90600052602060002090601f0160209004810192826108ed5760008555610934565b82601f1061090657805160ff1916838001178555610934565b82800160010185558215610934579182015b82811115610933578251825591602001919060010190610918565b5b5090506109419190610945565b5090565b5b8082111561095e576000816000905550600101610946565b5090565b600061097561097084610df3565b610dce565b90508281526020810184848401111561098d57600080fd5b610998848285610f08565b509392505050565b6000813590506109af81611045565b92915050565b600082601f8301126109c657600080fd5b81356109d6848260208601610962565b91505092915050565b6000813590506109ee8161105c565b92915050565b600080600060608486031215610a0957600080fd5b6000610a17868287016109a0565b9350506020610a28868287016109df565b925050604084013567ffffffffffffffff811115610a4557600080fd5b610a51868287016109b5565b9150509250925092565b600060208284031215610a6d57600080fd5b6000610a7b848285016109df565b91505092915050565b60008060408385031215610a9757600080fd5b6000610aa5858286016109df565b9250506020610ab6858286016109a0565b9150509250929050565b6000610acc8383610c29565b905092915050565b610add81610ed2565b82525050565b610aec81610e8a565b82525050565b610afb81610e8a565b82525050565b6000610b0c82610e34565b610b168185610e57565b935083602082028501610b2885610e24565b8060005b85811015610b645784840389528151610b458582610ac0565b9450610b5083610e4a565b925060208a01995050600181019050610b2c565b50829750879550505050505092915050565b610b7f81610e9c565b82525050565b610b8e81610e9c565b82525050565b6000610b9f82610e3f565b610ba98185610e68565b9350610bb9818560208601610f17565b610bc28161100b565b840191505092915050565b6000610bd882610e3f565b610be28185610e79565b9350610bf2818560208601610f17565b610bfb8161100b565b840191505092915050565b6000610c13600d83610e79565b9150610c1e8261101c565b602082019050919050565b600060a083016000830151610c416000860182610ae3565b506020830151610c546020860182610c9f565b5060408301518482036040860152610c6c8282610b94565b9150506060830151610c816060860182610c9f565b506080830151610c946080860182610b76565b508091505092915050565b610ca881610ec8565b82525050565b610cb781610ec8565b82525050565b6000604082019050610cd26000830185610ad4565b610cdf6020830184610cae565b9392505050565b6000608082019050610cfb6000830187610af2565b610d086020830186610cae565b8181036040830152610d1a8185610bcd565b9050610d296060830184610cae565b95945050505050565b600060a082019050610d476000830188610af2565b610d546020830187610cae565b8181036040830152610d668186610bcd565b9050610d756060830185610cae565b610d826080830184610b85565b9695505050505050565b60006020820190508181036000830152610da68184610b01565b905092915050565b60006020820190508181036000830152610dc781610c06565b9050919050565b6000610dd8610de9565b9050610de48282610f7c565b919050565b6000604051905090565b600067ffffffffffffffff821115610e0e57610e0d610fdc565b5b610e178261100b565b9050602081019050919050565b6000819050602082019050919050565b600081519050919050565b600081519050919050565b6000602082019050919050565b600082825260208201905092915050565b600082825260208201905092915050565b600082825260208201905092915050565b6000610e9582610ea8565b9050919050565b60008115159050919050565b600073ffffffffffffffffffffffffffffffffffffffff82169050919050565b6000819050919050565b6000610edd82610ee4565b9050919050565b6000610eef82610ef6565b9050919050565b6000610f0182610ea8565b9050919050565b82818337600083830152505050565b60005b83811015610f35578082015181840152602081019050610f1a565b83811115610f44576000848401525b50505050565b60006002820490506001821680610f6257607f821691505b60208210811415610f7657610f75610fad565b5b50919050565b610f858261100b565b810181811067ffffffffffffffff82111715610fa457610fa3610fdc565b5b80604052505050565b7f4e487b7100000000000000000000000000000000000000000000000000000000600052602260045260246000fd5b7f4e487b7100000000000000000000000000000000000000000000000000000000600052604160045260246000fd5b6000601f19601f8301169050919050565b7f416c726561647920646f6e652e00000000000000000000000000000000000000600082015250565b61104e81610e8a565b811461105957600080fd5b50565b61106581610ec8565b811461107057600080fd5b5056fea2646970667358221220ecd8bc2d820fc85076ae7be839b5bd79317334fc3971242574a16772dafb2c2464736f6c63430008040033",
  "linkReferences": {},
  "deployedLinkReferences": {}
}