{
  "_format": "hh-sol-artifact-1",
  "contractName": "CreateTask",
  "sourceName": "contracts/Task.sol",
  "abi": [
    {
      "anonymous": false,
      "inputs": [
        {
          "indexed": false,
          "internalType": "address",
          "name": "user",
          "type": "address"
        },
        {
          "indexed": false,
          "internalType": "uint256",
          "name": "index",
          "type": "uint256"
        }
      ],
      "name": "DoneTask",
      "type": "event"
    },
    {
      "anonymous": false,
      "inputs": [
        {
          "indexed": false,
          "internalType": "address",
          "name": "user",
          "type": "address"
        },
        {
          "indexed": false,
          "internalType": "uint256",
          "name": "due",
          "type": "uint256"
        },
        {
          "indexed": false,
          "internalType": "string",
          "name": "content",
          "type": "string"
        },
        {
          "indexed": false,
          "internalType": "uint256",
          "name": "bounty",
          "type": "uint256"
        },
        {
          "indexed": false,
          "internalType": "bool",
          "name": "done",
          "type": "bool"
        }
      ],
      "name": "NewTask",
      "type": "event"
    },
    {
      "inputs": [
        {
          "internalType": "address",
          "name": "_user",
          "type": "address"
        },
        {
          "internalType": "uint256",
          "name": "_due",
          "type": "uint256"
        },
        {
          "internalType": "string",
          "name": "_content",
          "type": "string"
        }
      ],
      "name": "createTask",
      "outputs": [],
      "stateMutability": "payable",
      "type": "function"
    },
    {
      "inputs": [],
      "name": "getAllTasks",
      "outputs": [
        {
          "components": [
            {
              "internalType": "address",
              "name": "user",
              "type": "address"
            },
            {
              "internalType": "uint256",
              "name": "due",
              "type": "uint256"
            },
            {
              "internalType": "string",
              "name": "content",
              "type": "string"
            },
            {
              "internalType": "uint256",
              "name": "bounty",
              "type": "uint256"
            },
            {
              "internalType": "bool",
              "name": "done",
              "type": "bool"
            }
          ],
          "internalType": "struct CreateTask.Task[]",
          "name": "",
          "type": "tuple[]"
        }
      ],
      "stateMutability": "view",
      "type": "function"
    },
    {
      "inputs": [
        {
          "internalType": "uint256",
          "name": "_index",
          "type": "uint256"
        },
        {
          "internalType": "address",
          "name": "_riwarder",
          "type": "address"
        }
      ],
      "name": "sendRiward",
      "outputs": [],
      "stateMutability": "payable",
      "type": "function"
    },
    {
      "inputs": [
        {
          "internalType": "uint256",
          "name": "",
          "type": "uint256"
        }
      ],
      "name": "tasks",
      "outputs": [
        {
          "internalType": "address",
          "name": "user",
          "type": "address"
        },
        {
          "internalType": "uint256",
          "name": "due",
          "type": "uint256"
        },
        {
          "internalType": "string",
          "name": "content",
          "type": "string"
        },
        {
          "internalType": "uint256",
          "name": "bounty",
          "type": "uint256"
        },
        {
          "internalType": "bool",
          "name": "done",
          "type": "bool"
        }
      ],
      "stateMutability": "view",
      "type": "function"
    },
    {
      "inputs": [
        {
          "internalType": "uint256",
          "name": "_index",
          "type": "uint256"
        }
      ],
      "name": "viewTask",
      "outputs": [
        {
          "internalType": "address",
          "name": "",
          "type": "address"
        },
        {
          "internalType": "uint256",
          "name": "",
          "type": "uint256"
        },
        {
          "internalType": "string",
          "name": "",
          "type": "string"
        },
        {
          "internalType": "uint256",
          "name": "",
          "type": "uint256"
        }
      ],
      "stateMutability": "view",
      "type": "function"
    }
  ],
  "bytecode": "0x608060405234801561001057600080fd5b50611214806100206000396000f3fe60806040526004361061004a5760003560e01c80633b3d7e561461004f57806373db06a11461008f578063779900b4146100ab5780638d977672146100d6578063dd06bf9514610117575b600080fd5b34801561005b57600080fd5b5061007660048036038101906100719190610b34565b610133565b6040516100869493929190610de2565b60405180910390f35b6100a960048036038101906100a49190610acd565b610323565b005b3480156100b757600080fd5b506100c0610476565b6040516100cd9190610e88565b60405180910390f35b3480156100e257600080fd5b506100fd60048036038101906100f89190610b34565b6105ec565b60405161010e959493929190610e2e565b60405180910390f35b610131600480360381019061012c9190610b5d565b6106e7565b005b60008060606000808581548110610173577f4e487b7100000000000000000000000000000000000000000000000000000000600052603260045260246000fd5b906000526020600020906005020160000160009054906101000a900473ffffffffffffffffffffffffffffffffffffffff16600086815481106101df577f4e487b7100000000000000000000000000000000000000000000000000000000600052603260045260246000fd5b9060005260206000209060050201600101546000878154811061022b577f4e487b7100000000000000000000000000000000000000000000000000000000600052603260045260246000fd5b906000526020600020906005020160020160008881548110610276577f4e487b7100000000000000000000000000000000000000000000000000000000600052603260045260246000fd5b90600052602060002090600502016003015481805461029490611066565b80601f01602080910402602001604051908101604052809291908181526020018280546102c090611066565b801561030d5780601f106102e25761010080835404028352916020019161030d565b820191906000526020600020905b8154815290600101906020018083116102f057829003601f168201915b5050505050915093509350935093509193509193565b33925060003490506000806040518060a001604052808773ffffffffffffffffffffffffffffffffffffffff168152602001868152602001858152602001848152602001831515815250908060018154018082558091505060019003906000526020600020906005020160009091909190915060008201518160000160006101000a81548173ffffffffffffffffffffffffffffffffffffffff021916908373ffffffffffffffffffffffffffffffffffffffff160217905550602082015181600101556040820151816002019080519060200190610403929190610998565b506060820151816003015560808201518160040160006101000a81548160ff02191690831515021790555050507f5871a8657186643882832fdeda0bfb3277984f8149b007b4867cb677ca4b77128585858585604051610467959493929190610e2e565b60405180910390a15050505050565b60606000805480602002602001604051908101604052809291908181526020016000905b828210156105e357838290600052602060002090600502016040518060a00160405290816000820160009054906101000a900473ffffffffffffffffffffffffffffffffffffffff1673ffffffffffffffffffffffffffffffffffffffff1673ffffffffffffffffffffffffffffffffffffffff1681526020016001820154815260200160028201805461052d90611066565b80601f016020809104026020016040519081016040528092919081815260200182805461055990611066565b80156105a65780601f1061057b576101008083540402835291602001916105a6565b820191906000526020600020905b81548152906001019060200180831161058957829003601f168201915b50505050508152602001600382015481526020016004820160009054906101000a900460ff1615151515815250508152602001906001019061049a565b50505050905090565b600081815481106105fc57600080fd5b90600052602060002090600502016000915090508060000160009054906101000a900473ffffffffffffffffffffffffffffffffffffffff169080600101549080600201805461064b90611066565b80601f016020809104026020016040519081016040528092919081815260200182805461067790611066565b80156106c45780601f10610699576101008083540402835291602001916106c4565b820191906000526020600020905b8154815290600101906020018083116106a757829003601f168201915b5050505050908060030154908060040160009054906101000a900460ff16905085565b6000151560008381548110610725577f4e487b7100000000000000000000000000000000000000000000000000000000600052603260045260246000fd5b906000526020600020906005020160040160009054906101000a900460ff16151514610786576040517f08c379a000000000000000000000000000000000000000000000000000000000815260040161077d90610eca565b60405180910390fd5b60008190503373ffffffffffffffffffffffffffffffffffffffff16600084815481106107dc577f4e487b7100000000000000000000000000000000000000000000000000000000600052603260045260246000fd5b906000526020600020906005020160000160009054906101000a900473ffffffffffffffffffffffffffffffffffffffff1673ffffffffffffffffffffffffffffffffffffffff1614610864576040517f08c379a000000000000000000000000000000000000000000000000000000000815260040161085b90610eaa565b60405180910390fd5b8073ffffffffffffffffffffffffffffffffffffffff166108fc600085815481106108b8577f4e487b7100000000000000000000000000000000000000000000000000000000600052603260045260246000fd5b9060005260206000209060050201600301549081150290604051600060405180830381858888f193505050501580156108f5573d6000803e3d6000fd5b50600160008481548110610932577f4e487b7100000000000000000000000000000000000000000000000000000000600052603260045260246000fd5b906000526020600020906005020160040160006101000a81548160ff0219169083151502179055507f6b9a28a11a6bf92d623d54370d7b04d29ef809d44684f18d1ac4fdc2fc1b93ef818460405161098b929190610db9565b60405180910390a1505050565b8280546109a490611066565b90600052602060002090601f0160209004810192826109c65760008555610a0d565b82601f106109df57805160ff1916838001178555610a0d565b82800160010185558215610a0d579182015b82811115610a0c5782518255916020019190600101906109f1565b5b509050610a1a9190610a1e565b5090565b5b80821115610a37576000816000905550600101610a1f565b5090565b6000610a4e610a4984610f0f565b610eea565b905082815260208101848484011115610a6657600080fd5b610a71848285611024565b509392505050565b600081359050610a88816111b0565b92915050565b600082601f830112610a9f57600080fd5b8135610aaf848260208601610a3b565b91505092915050565b600081359050610ac7816111c7565b92915050565b600080600060608486031215610ae257600080fd5b6000610af086828701610a79565b9350506020610b0186828701610ab8565b925050604084013567ffffffffffffffff811115610b1e57600080fd5b610b2a86828701610a8e565b9150509250925092565b600060208284031215610b4657600080fd5b6000610b5484828501610ab8565b91505092915050565b60008060408385031215610b7057600080fd5b6000610b7e85828601610ab8565b9250506020610b8f85828601610a79565b9150509250929050565b6000610ba58383610d25565b905092915050565b610bb681610fee565b82525050565b610bc581610fa6565b82525050565b610bd481610fa6565b82525050565b6000610be582610f50565b610bef8185610f73565b935083602082028501610c0185610f40565b8060005b85811015610c3d5784840389528151610c1e8582610b99565b9450610c2983610f66565b925060208a01995050600181019050610c05565b50829750879550505050505092915050565b610c5881610fb8565b82525050565b610c6781610fb8565b82525050565b6000610c7882610f5b565b610c828185610f84565b9350610c92818560208601611033565b610c9b81611127565b840191505092915050565b6000610cb182610f5b565b610cbb8185610f95565b9350610ccb818560208601611033565b610cd481611127565b840191505092915050565b6000610cec602a83610f95565b9150610cf782611138565b604082019050919050565b6000610d0f600d83610f95565b9150610d1a82611187565b602082019050919050565b600060a083016000830151610d3d6000860182610bbc565b506020830151610d506020860182610d9b565b5060408301518482036040860152610d688282610c6d565b9150506060830151610d7d6060860182610d9b565b506080830151610d906080860182610c4f565b508091505092915050565b610da481610fe4565b82525050565b610db381610fe4565b82525050565b6000604082019050610dce6000830185610bad565b610ddb6020830184610daa565b9392505050565b6000608082019050610df76000830187610bcb565b610e046020830186610daa565b8181036040830152610e168185610ca6565b9050610e256060830184610daa565b95945050505050565b600060a082019050610e436000830188610bcb565b610e506020830187610daa565b8181036040830152610e628186610ca6565b9050610e716060830185610daa565b610e7e6080830184610c5e565b9695505050505050565b60006020820190508181036000830152610ea28184610bda565b905092915050565b60006020820190508181036000830152610ec381610cdf565b9050919050565b60006020820190508181036000830152610ee381610d02565b9050919050565b6000610ef4610f05565b9050610f008282611098565b919050565b6000604051905090565b600067ffffffffffffffff821115610f2a57610f296110f8565b5b610f3382611127565b9050602081019050919050565b6000819050602082019050919050565b600081519050919050565b600081519050919050565b6000602082019050919050565b600082825260208201905092915050565b600082825260208201905092915050565b600082825260208201905092915050565b6000610fb182610fc4565b9050919050565b60008115159050919050565b600073ffffffffffffffffffffffffffffffffffffffff82169050919050565b6000819050919050565b6000610ff982611000565b9050919050565b600061100b82611012565b9050919050565b600061101d82610fc4565b9050919050565b82818337600083830152505050565b60005b83811015611051578082015181840152602081019050611036565b83811115611060576000848401525b50505050565b6000600282049050600182168061107e57607f821691505b60208210811415611092576110916110c9565b5b50919050565b6110a182611127565b810181811067ffffffffffffffff821117156110c0576110bf6110f8565b5b80604052505050565b7f4e487b7100000000000000000000000000000000000000000000000000000000600052602260045260246000fd5b7f4e487b7100000000000000000000000000000000000000000000000000000000600052604160045260246000fd5b6000601f19601f8301169050919050565b7f596f7520446f6e277420686176652074686520726967687420746f20656e642060008201527f74686973207461736b2e00000000000000000000000000000000000000000000602082015250565b7f416c726561647920646f6e652e00000000000000000000000000000000000000600082015250565b6111b981610fa6565b81146111c457600080fd5b50565b6111d081610fe4565b81146111db57600080fd5b5056fea2646970667358221220699afb4764f69832ba8775728672ddf693068ea2493554786495d2da685f189464736f6c63430008040033",
  "linkReferences": {},
  "deployedLinkReferences": {}
}