{
  "_format": "hh-sol-artifact-1",
  "contractName": "CreateTask",
  "sourceName": "contracts/Task.sol",
  "abi": [
    {
      "anonymous": false,
      "inputs": [
        {
          "indexed": false,
          "internalType": "address",
          "name": "user",
          "type": "address"
        },
        {
          "indexed": false,
          "internalType": "uint256",
          "name": "index",
          "type": "uint256"
        }
      ],
      "name": "DoneTask",
      "type": "event"
    },
    {
      "anonymous": false,
      "inputs": [
        {
          "indexed": false,
          "internalType": "address",
          "name": "user",
          "type": "address"
        },
        {
          "indexed": false,
          "internalType": "uint256",
          "name": "due",
          "type": "uint256"
        },
        {
          "indexed": false,
          "internalType": "string",
          "name": "content",
          "type": "string"
        },
        {
          "indexed": false,
          "internalType": "uint256",
          "name": "bounty",
          "type": "uint256"
        },
        {
          "indexed": false,
          "internalType": "bool",
          "name": "done",
          "type": "bool"
        }
      ],
      "name": "NewTask",
      "type": "event"
    },
    {
      "inputs": [
        {
          "internalType": "address",
          "name": "_user",
          "type": "address"
        },
        {
          "internalType": "uint256",
          "name": "_due",
          "type": "uint256"
        },
        {
          "internalType": "string",
          "name": "_content",
          "type": "string"
        }
      ],
      "name": "createTask",
      "outputs": [],
      "stateMutability": "payable",
      "type": "function"
    },
    {
      "inputs": [],
      "name": "getAllTasks",
      "outputs": [
        {
          "components": [
            {
              "internalType": "address",
              "name": "user",
              "type": "address"
            },
            {
              "internalType": "uint256",
              "name": "due",
              "type": "uint256"
            },
            {
              "internalType": "string",
              "name": "content",
              "type": "string"
            },
            {
              "internalType": "uint256",
              "name": "bounty",
              "type": "uint256"
            },
            {
              "internalType": "bool",
              "name": "done",
              "type": "bool"
            }
          ],
          "internalType": "struct CreateTask.Task[]",
          "name": "",
          "type": "tuple[]"
        }
      ],
      "stateMutability": "view",
      "type": "function"
    },
    {
      "inputs": [
        {
          "internalType": "uint256",
          "name": "_index",
          "type": "uint256"
        }
      ],
      "name": "sendRiward",
      "outputs": [],
      "stateMutability": "payable",
      "type": "function"
    },
    {
      "inputs": [
        {
          "internalType": "uint256",
          "name": "",
          "type": "uint256"
        }
      ],
      "name": "tasks",
      "outputs": [
        {
          "internalType": "address",
          "name": "user",
          "type": "address"
        },
        {
          "internalType": "uint256",
          "name": "due",
          "type": "uint256"
        },
        {
          "internalType": "string",
          "name": "content",
          "type": "string"
        },
        {
          "internalType": "uint256",
          "name": "bounty",
          "type": "uint256"
        },
        {
          "internalType": "bool",
          "name": "done",
          "type": "bool"
        }
      ],
      "stateMutability": "view",
      "type": "function"
    },
    {
      "inputs": [
        {
          "internalType": "uint256",
          "name": "_index",
          "type": "uint256"
        }
      ],
      "name": "viewTask",
      "outputs": [
        {
          "internalType": "address",
          "name": "",
          "type": "address"
        },
        {
          "internalType": "uint256",
          "name": "",
          "type": "uint256"
        },
        {
          "internalType": "string",
          "name": "",
          "type": "string"
        },
        {
          "internalType": "uint256",
          "name": "",
          "type": "uint256"
        }
      ],
      "stateMutability": "view",
      "type": "function"
    }
  ],
  "bytecode": "0x608060405234801561001057600080fd5b50610f61806100206000396000f3fe60806040526004361061004a5760003560e01c80633b3d7e561461004f57806373db06a11461008f578063779900b4146100ab5780638d977672146100d6578063d4c7d77d14610117575b600080fd5b34801561005b57600080fd5b50610076600480360381019061007191906109bb565b610133565b6040516100869493929190610be7565b60405180910390f35b6100a960048036038101906100a49190610954565b610323565b005b3480156100b757600080fd5b506100c0610476565b6040516100cd9190610c8d565b60405180910390f35b3480156100e257600080fd5b506100fd60048036038101906100f891906109bb565b6105ec565b60405161010e959493929190610c33565b60405180910390f35b610131600480360381019061012c91906109bb565b6106e7565b005b60008060606000808581548110610173577f4e487b7100000000000000000000000000000000000000000000000000000000600052603260045260246000fd5b906000526020600020906005020160000160009054906101000a900473ffffffffffffffffffffffffffffffffffffffff16600086815481106101df577f4e487b7100000000000000000000000000000000000000000000000000000000600052603260045260246000fd5b9060005260206000209060050201600101546000878154811061022b577f4e487b7100000000000000000000000000000000000000000000000000000000600052603260045260246000fd5b906000526020600020906005020160020160008881548110610276577f4e487b7100000000000000000000000000000000000000000000000000000000600052603260045260246000fd5b90600052602060002090600502016003015481805461029490610e2b565b80601f01602080910402602001604051908101604052809291908181526020018280546102c090610e2b565b801561030d5780601f106102e25761010080835404028352916020019161030d565b820191906000526020600020905b8154815290600101906020018083116102f057829003601f168201915b5050505050915093509350935093509193509193565b33925060003490506000806040518060a001604052808773ffffffffffffffffffffffffffffffffffffffff168152602001868152602001858152602001848152602001831515815250908060018154018082558091505060019003906000526020600020906005020160009091909190915060008201518160000160006101000a81548173ffffffffffffffffffffffffffffffffffffffff021916908373ffffffffffffffffffffffffffffffffffffffff16021790555060208201518160010155604082015181600201908051906020019061040392919061081f565b506060820151816003015560808201518160040160006101000a81548160ff02191690831515021790555050507f5871a8657186643882832fdeda0bfb3277984f8149b007b4867cb677ca4b77128585858585604051610467959493929190610c33565b60405180910390a15050505050565b60606000805480602002602001604051908101604052809291908181526020016000905b828210156105e357838290600052602060002090600502016040518060a00160405290816000820160009054906101000a900473ffffffffffffffffffffffffffffffffffffffff1673ffffffffffffffffffffffffffffffffffffffff1673ffffffffffffffffffffffffffffffffffffffff1681526020016001820154815260200160028201805461052d90610e2b565b80601f016020809104026020016040519081016040528092919081815260200182805461055990610e2b565b80156105a65780601f1061057b576101008083540402835291602001916105a6565b820191906000526020600020905b81548152906001019060200180831161058957829003601f168201915b50505050508152602001600382015481526020016004820160009054906101000a900460ff1615151515815250508152602001906001019061049a565b50505050905090565b600081815481106105fc57600080fd5b90600052602060002090600502016000915090508060000160009054906101000a900473ffffffffffffffffffffffffffffffffffffffff169080600101549080600201805461064b90610e2b565b80601f016020809104026020016040519081016040528092919081815260200182805461067790610e2b565b80156106c45780601f10610699576101008083540402835291602001916106c4565b820191906000526020600020905b8154815290600101906020018083116106a757829003601f168201915b5050505050908060030154908060040160009054906101000a900460ff16905085565b60003390508073ffffffffffffffffffffffffffffffffffffffff166108fc60008481548110610740577f4e487b7100000000000000000000000000000000000000000000000000000000600052603260045260246000fd5b9060005260206000209060050201600301549081150290604051600060405180830381858888f1935050505015801561077d573d6000803e3d6000fd5b507f6b9a28a11a6bf92d623d54370d7b04d29ef809d44684f18d1ac4fdc2fc1b93ef81836040516107af929190610bbe565b60405180910390a16001600083815481106107f3577f4e487b7100000000000000000000000000000000000000000000000000000000600052603260045260246000fd5b906000526020600020906005020160040160006101000a81548160ff0219169083151502179055505050565b82805461082b90610e2b565b90600052602060002090601f01602090048101928261084d5760008555610894565b82601f1061086657805160ff1916838001178555610894565b82800160010185558215610894579182015b82811115610893578251825591602001919060010190610878565b5b5090506108a191906108a5565b5090565b5b808211156108be5760008160009055506001016108a6565b5090565b60006108d56108d084610cd4565b610caf565b9050828152602081018484840111156108ed57600080fd5b6108f8848285610de9565b509392505050565b60008135905061090f81610efd565b92915050565b600082601f83011261092657600080fd5b81356109368482602086016108c2565b91505092915050565b60008135905061094e81610f14565b92915050565b60008060006060848603121561096957600080fd5b600061097786828701610900565b93505060206109888682870161093f565b925050604084013567ffffffffffffffff8111156109a557600080fd5b6109b186828701610915565b9150509250925092565b6000602082840312156109cd57600080fd5b60006109db8482850161093f565b91505092915050565b60006109f08383610b2a565b905092915050565b610a0181610db3565b82525050565b610a1081610d6b565b82525050565b610a1f81610d6b565b82525050565b6000610a3082610d15565b610a3a8185610d38565b935083602082028501610a4c85610d05565b8060005b85811015610a885784840389528151610a6985826109e4565b9450610a7483610d2b565b925060208a01995050600181019050610a50565b50829750879550505050505092915050565b610aa381610d7d565b82525050565b610ab281610d7d565b82525050565b6000610ac382610d20565b610acd8185610d49565b9350610add818560208601610df8565b610ae681610eec565b840191505092915050565b6000610afc82610d20565b610b068185610d5a565b9350610b16818560208601610df8565b610b1f81610eec565b840191505092915050565b600060a083016000830151610b426000860182610a07565b506020830151610b556020860182610ba0565b5060408301518482036040860152610b6d8282610ab8565b9150506060830151610b826060860182610ba0565b506080830151610b956080860182610a9a565b508091505092915050565b610ba981610da9565b82525050565b610bb881610da9565b82525050565b6000604082019050610bd360008301856109f8565b610be06020830184610baf565b9392505050565b6000608082019050610bfc6000830187610a16565b610c096020830186610baf565b8181036040830152610c1b8185610af1565b9050610c2a6060830184610baf565b95945050505050565b600060a082019050610c486000830188610a16565b610c556020830187610baf565b8181036040830152610c678186610af1565b9050610c766060830185610baf565b610c836080830184610aa9565b9695505050505050565b60006020820190508181036000830152610ca78184610a25565b905092915050565b6000610cb9610cca565b9050610cc58282610e5d565b919050565b6000604051905090565b600067ffffffffffffffff821115610cef57610cee610ebd565b5b610cf882610eec565b9050602081019050919050565b6000819050602082019050919050565b600081519050919050565b600081519050919050565b6000602082019050919050565b600082825260208201905092915050565b600082825260208201905092915050565b600082825260208201905092915050565b6000610d7682610d89565b9050919050565b60008115159050919050565b600073ffffffffffffffffffffffffffffffffffffffff82169050919050565b6000819050919050565b6000610dbe82610dc5565b9050919050565b6000610dd082610dd7565b9050919050565b6000610de282610d89565b9050919050565b82818337600083830152505050565b60005b83811015610e16578082015181840152602081019050610dfb565b83811115610e25576000848401525b50505050565b60006002820490506001821680610e4357607f821691505b60208210811415610e5757610e56610e8e565b5b50919050565b610e6682610eec565b810181811067ffffffffffffffff82111715610e8557610e84610ebd565b5b80604052505050565b7f4e487b7100000000000000000000000000000000000000000000000000000000600052602260045260246000fd5b7f4e487b7100000000000000000000000000000000000000000000000000000000600052604160045260246000fd5b6000601f19601f8301169050919050565b610f0681610d6b565b8114610f1157600080fd5b50565b610f1d81610da9565b8114610f2857600080fd5b5056fea2646970667358221220d28e17faa34fab7afd8f7588c93b0d2f407362615a110a7e51b89fc2d96fa5c964736f6c63430008040033",
  "linkReferences": {},
  "deployedLinkReferences": {}
}