{
  "_format": "hh-sol-artifact-1",
  "contractName": "CreateTask",
  "sourceName": "contracts/Task.sol",
  "abi": [
    {
      "anonymous": false,
      "inputs": [
        {
          "indexed": false,
          "internalType": "address",
          "name": "user",
          "type": "address"
        },
        {
          "indexed": false,
          "internalType": "uint256",
          "name": "index",
          "type": "uint256"
        }
      ],
      "name": "DoneTask",
      "type": "event"
    },
    {
      "anonymous": false,
      "inputs": [
        {
          "indexed": false,
          "internalType": "address",
          "name": "user",
          "type": "address"
        },
        {
          "indexed": false,
          "internalType": "string",
          "name": "due",
          "type": "string"
        },
        {
          "indexed": false,
          "internalType": "string",
          "name": "content",
          "type": "string"
        },
        {
          "indexed": false,
          "internalType": "uint256",
          "name": "bounty",
          "type": "uint256"
        },
        {
          "indexed": false,
          "internalType": "bool",
          "name": "done",
          "type": "bool"
        }
      ],
      "name": "NewTask",
      "type": "event"
    },
    {
      "inputs": [
        {
          "internalType": "address",
          "name": "_user",
          "type": "address"
        },
        {
          "internalType": "string",
          "name": "_due",
          "type": "string"
        },
        {
          "internalType": "string",
          "name": "_content",
          "type": "string"
        }
      ],
      "name": "createTask",
      "outputs": [],
      "stateMutability": "payable",
      "type": "function"
    },
    {
      "inputs": [],
      "name": "getAllTasks",
      "outputs": [
        {
          "components": [
            {
              "internalType": "address",
              "name": "user",
              "type": "address"
            },
            {
              "internalType": "string",
              "name": "due",
              "type": "string"
            },
            {
              "internalType": "string",
              "name": "content",
              "type": "string"
            },
            {
              "internalType": "uint256",
              "name": "bounty",
              "type": "uint256"
            },
            {
              "internalType": "bool",
              "name": "done",
              "type": "bool"
            }
          ],
          "internalType": "struct CreateTask.Task[]",
          "name": "",
          "type": "tuple[]"
        }
      ],
      "stateMutability": "view",
      "type": "function"
    },
    {
      "inputs": [
        {
          "internalType": "uint256",
          "name": "_index",
          "type": "uint256"
        },
        {
          "internalType": "address",
          "name": "_riwarder",
          "type": "address"
        }
      ],
      "name": "sendRiward",
      "outputs": [],
      "stateMutability": "payable",
      "type": "function"
    },
    {
      "inputs": [
        {
          "internalType": "uint256",
          "name": "",
          "type": "uint256"
        }
      ],
      "name": "tasks",
      "outputs": [
        {
          "internalType": "address",
          "name": "user",
          "type": "address"
        },
        {
          "internalType": "string",
          "name": "due",
          "type": "string"
        },
        {
          "internalType": "string",
          "name": "content",
          "type": "string"
        },
        {
          "internalType": "uint256",
          "name": "bounty",
          "type": "uint256"
        },
        {
          "internalType": "bool",
          "name": "done",
          "type": "bool"
        }
      ],
      "stateMutability": "view",
      "type": "function"
    },
    {
      "inputs": [
        {
          "internalType": "uint256",
          "name": "_index",
          "type": "uint256"
        }
      ],
      "name": "viewTask",
      "outputs": [
        {
          "internalType": "address",
          "name": "",
          "type": "address"
        },
        {
          "internalType": "string",
          "name": "",
          "type": "string"
        },
        {
          "internalType": "string",
          "name": "",
          "type": "string"
        },
        {
          "internalType": "uint256",
          "name": "",
          "type": "uint256"
        }
      ],
      "stateMutability": "view",
      "type": "function"
    }
  ],
  "bytecode": "0x608060405234801561001057600080fd5b506113ef806100206000396000f3fe60806040526004361061004a5760003560e01c80633b3d7e561461004f578063540e08a31461008f578063779900b4146100ab5780638d977672146100d6578063dd06bf9514610117575b600080fd5b34801561005b57600080fd5b5061007660048036038101906100719190610cfa565b610133565b6040516100869493929190610faf565b60405180910390f35b6100a960048036038101906100a49190610c7b565b6103ae565b005b3480156100b757600080fd5b506100c0610514565b6040516100cd9190611063565b60405180910390f35b3480156100e257600080fd5b506100fd60048036038101906100f89190610cfa565b610712565b60405161010e959493929190611002565b60405180910390f35b610131600480360381019061012c9190610d23565b610895565b005b60006060806000808581548110610173577f4e487b7100000000000000000000000000000000000000000000000000000000600052603260045260246000fd5b906000526020600020906005020160000160009054906101000a900473ffffffffffffffffffffffffffffffffffffffff16600086815481106101df577f4e487b7100000000000000000000000000000000000000000000000000000000600052603260045260246000fd5b90600052602060002090600502016001016000878154811061022a577f4e487b7100000000000000000000000000000000000000000000000000000000600052603260045260246000fd5b906000526020600020906005020160020160008881548110610275577f4e487b7100000000000000000000000000000000000000000000000000000000600052603260045260246000fd5b90600052602060002090600502016003015482805461029390611241565b80601f01602080910402602001604051908101604052809291908181526020018280546102bf90611241565b801561030c5780601f106102e15761010080835404028352916020019161030c565b820191906000526020600020905b8154815290600101906020018083116102ef57829003601f168201915b5050505050925081805461031f90611241565b80601f016020809104026020016040519081016040528092919081815260200182805461034b90611241565b80156103985780601f1061036d57610100808354040283529160200191610398565b820191906000526020600020905b81548152906001019060200180831161037b57829003601f168201915b5050505050915093509350935093509193509193565b33925060003490506000806040518060a001604052808773ffffffffffffffffffffffffffffffffffffffff168152602001868152602001858152602001848152602001831515815250908060018154018082558091505060019003906000526020600020906005020160009091909190915060008201518160000160006101000a81548173ffffffffffffffffffffffffffffffffffffffff021916908373ffffffffffffffffffffffffffffffffffffffff1602179055506020820151816001019080519060200190610484929190610b46565b5060408201518160020190805190602001906104a1929190610b46565b506060820151816003015560808201518160040160006101000a81548160ff02191690831515021790555050507f90b53944b4e258f338e357af644f6ad09d8f88387debaa6caaf1f53e6ca00e3c8585858585604051610505959493929190611002565b60405180910390a15050505050565b60606000805480602002602001604051908101604052809291908181526020016000905b8282101561070957838290600052602060002090600502016040518060a00160405290816000820160009054906101000a900473ffffffffffffffffffffffffffffffffffffffff1673ffffffffffffffffffffffffffffffffffffffff1673ffffffffffffffffffffffffffffffffffffffff1681526020016001820180546105c190611241565b80601f01602080910402602001604051908101604052809291908181526020018280546105ed90611241565b801561063a5780601f1061060f5761010080835404028352916020019161063a565b820191906000526020600020905b81548152906001019060200180831161061d57829003601f168201915b5050505050815260200160028201805461065390611241565b80601f016020809104026020016040519081016040528092919081815260200182805461067f90611241565b80156106cc5780601f106106a1576101008083540402835291602001916106cc565b820191906000526020600020905b8154815290600101906020018083116106af57829003601f168201915b50505050508152602001600382015481526020016004820160009054906101000a900460ff16151515158152505081526020019060010190610538565b50505050905090565b6000818154811061072257600080fd5b90600052602060002090600502016000915090508060000160009054906101000a900473ffffffffffffffffffffffffffffffffffffffff169080600101805461076b90611241565b80601f016020809104026020016040519081016040528092919081815260200182805461079790611241565b80156107e45780601f106107b9576101008083540402835291602001916107e4565b820191906000526020600020905b8154815290600101906020018083116107c757829003601f168201915b5050505050908060020180546107f990611241565b80601f016020809104026020016040519081016040528092919081815260200182805461082590611241565b80156108725780601f1061084757610100808354040283529160200191610872565b820191906000526020600020905b81548152906001019060200180831161085557829003601f168201915b5050505050908060030154908060040160009054906101000a900460ff16905085565b60001515600083815481106108d3577f4e487b7100000000000000000000000000000000000000000000000000000000600052603260045260246000fd5b906000526020600020906005020160040160009054906101000a900460ff16151514610934576040517f08c379a000000000000000000000000000000000000000000000000000000000815260040161092b906110a5565b60405180910390fd5b60008190503373ffffffffffffffffffffffffffffffffffffffff166000848154811061098a577f4e487b7100000000000000000000000000000000000000000000000000000000600052603260045260246000fd5b906000526020600020906005020160000160009054906101000a900473ffffffffffffffffffffffffffffffffffffffff1673ffffffffffffffffffffffffffffffffffffffff1614610a12576040517f08c379a0000000000000000000000000000000000000000000000000000000008152600401610a0990611085565b60405180910390fd5b8073ffffffffffffffffffffffffffffffffffffffff166108fc60008581548110610a66577f4e487b7100000000000000000000000000000000000000000000000000000000600052603260045260246000fd5b9060005260206000209060050201600301549081150290604051600060405180830381858888f19350505050158015610aa3573d6000803e3d6000fd5b50600160008481548110610ae0577f4e487b7100000000000000000000000000000000000000000000000000000000600052603260045260246000fd5b906000526020600020906005020160040160006101000a81548160ff0219169083151502179055507f6b9a28a11a6bf92d623d54370d7b04d29ef809d44684f18d1ac4fdc2fc1b93ef8184604051610b39929190610f86565b60405180910390a1505050565b828054610b5290611241565b90600052602060002090601f016020900481019282610b745760008555610bbb565b82601f10610b8d57805160ff1916838001178555610bbb565b82800160010185558215610bbb579182015b82811115610bba578251825591602001919060010190610b9f565b5b509050610bc89190610bcc565b5090565b5b80821115610be5576000816000905550600101610bcd565b5090565b6000610bfc610bf7846110ea565b6110c5565b905082815260208101848484011115610c1457600080fd5b610c1f8482856111ff565b509392505050565b600081359050610c368161138b565b92915050565b600082601f830112610c4d57600080fd5b8135610c5d848260208601610be9565b91505092915050565b600081359050610c75816113a2565b92915050565b600080600060608486031215610c9057600080fd5b6000610c9e86828701610c27565b935050602084013567ffffffffffffffff811115610cbb57600080fd5b610cc786828701610c3c565b925050604084013567ffffffffffffffff811115610ce457600080fd5b610cf086828701610c3c565b9150509250925092565b600060208284031215610d0c57600080fd5b6000610d1a84828501610c66565b91505092915050565b60008060408385031215610d3657600080fd5b6000610d4485828601610c66565b9250506020610d5585828601610c27565b9150509250929050565b6000610d6b8383610eeb565b905092915050565b610d7c816111c9565b82525050565b610d8b81611181565b82525050565b610d9a81611181565b82525050565b6000610dab8261112b565b610db5818561114e565b935083602082028501610dc78561111b565b8060005b85811015610e035784840389528151610de48582610d5f565b9450610def83611141565b925060208a01995050600181019050610dcb565b50829750879550505050505092915050565b610e1e81611193565b82525050565b610e2d81611193565b82525050565b6000610e3e82611136565b610e48818561115f565b9350610e5881856020860161120e565b610e6181611302565b840191505092915050565b6000610e7782611136565b610e818185611170565b9350610e9181856020860161120e565b610e9a81611302565b840191505092915050565b6000610eb2602a83611170565b9150610ebd82611313565b604082019050919050565b6000610ed5600d83611170565b9150610ee082611362565b602082019050919050565b600060a083016000830151610f036000860182610d82565b5060208301518482036020860152610f1b8282610e33565b91505060408301518482036040860152610f358282610e33565b9150506060830151610f4a6060860182610f68565b506080830151610f5d6080860182610e15565b508091505092915050565b610f71816111bf565b82525050565b610f80816111bf565b82525050565b6000604082019050610f9b6000830185610d73565b610fa86020830184610f77565b9392505050565b6000608082019050610fc46000830187610d91565b8181036020830152610fd68186610e6c565b90508181036040830152610fea8185610e6c565b9050610ff96060830184610f77565b95945050505050565b600060a0820190506110176000830188610d91565b81810360208301526110298187610e6c565b9050818103604083015261103d8186610e6c565b905061104c6060830185610f77565b6110596080830184610e24565b9695505050505050565b6000602082019050818103600083015261107d8184610da0565b905092915050565b6000602082019050818103600083015261109e81610ea5565b9050919050565b600060208201905081810360008301526110be81610ec8565b9050919050565b60006110cf6110e0565b90506110db8282611273565b919050565b6000604051905090565b600067ffffffffffffffff821115611105576111046112d3565b5b61110e82611302565b9050602081019050919050565b6000819050602082019050919050565b600081519050919050565b600081519050919050565b6000602082019050919050565b600082825260208201905092915050565b600082825260208201905092915050565b600082825260208201905092915050565b600061118c8261119f565b9050919050565b60008115159050919050565b600073ffffffffffffffffffffffffffffffffffffffff82169050919050565b6000819050919050565b60006111d4826111db565b9050919050565b60006111e6826111ed565b9050919050565b60006111f88261119f565b9050919050565b82818337600083830152505050565b60005b8381101561122c578082015181840152602081019050611211565b8381111561123b576000848401525b50505050565b6000600282049050600182168061125957607f821691505b6020821081141561126d5761126c6112a4565b5b50919050565b61127c82611302565b810181811067ffffffffffffffff8211171561129b5761129a6112d3565b5b80604052505050565b7f4e487b7100000000000000000000000000000000000000000000000000000000600052602260045260246000fd5b7f4e487b7100000000000000000000000000000000000000000000000000000000600052604160045260246000fd5b6000601f19601f8301169050919050565b7f596f7520446f6e277420686176652074686520726967687420746f20656e642060008201527f74686973207461736b2e00000000000000000000000000000000000000000000602082015250565b7f416c726561647920646f6e652e00000000000000000000000000000000000000600082015250565b61139481611181565b811461139f57600080fd5b50565b6113ab816111bf565b81146113b657600080fd5b5056fea2646970667358221220653b9001ea655c9fc5ed118fa0ada317e7d7471379f173088107abb1a8a350bc64736f6c63430008040033",
  "linkReferences": {},
  "deployedLinkReferences": {}
}