{
  "_format": "hh-sol-artifact-1",
  "contractName": "CreateTask",
  "sourceName": "contracts/Task.sol",
  "abi": [
    {
      "anonymous": false,
      "inputs": [
        {
          "indexed": false,
          "internalType": "address",
          "name": "user",
          "type": "address"
        },
        {
          "indexed": false,
          "internalType": "uint256",
          "name": "index",
          "type": "uint256"
        }
      ],
      "name": "DoneTask",
      "type": "event"
    },
    {
      "anonymous": false,
      "inputs": [
        {
          "indexed": false,
          "internalType": "address",
          "name": "user",
          "type": "address"
        },
        {
          "indexed": false,
          "internalType": "uint256",
          "name": "due",
          "type": "uint256"
        },
        {
          "indexed": false,
          "internalType": "string",
          "name": "content",
          "type": "string"
        },
        {
          "indexed": false,
          "internalType": "uint256",
          "name": "bounty",
          "type": "uint256"
        },
        {
          "indexed": false,
          "internalType": "bool",
          "name": "done",
          "type": "bool"
        }
      ],
      "name": "NewTask",
      "type": "event"
    },
    {
      "inputs": [
        {
          "internalType": "address",
          "name": "_user",
          "type": "address"
        },
        {
          "internalType": "uint256",
          "name": "_due",
          "type": "uint256"
        },
        {
          "internalType": "string",
          "name": "_content",
          "type": "string"
        }
      ],
      "name": "createTask",
      "outputs": [],
      "stateMutability": "payable",
      "type": "function"
    },
    {
      "inputs": [],
      "name": "getAllTasks",
      "outputs": [
        {
          "components": [
            {
              "internalType": "address",
              "name": "user",
              "type": "address"
            },
            {
              "internalType": "uint256",
              "name": "due",
              "type": "uint256"
            },
            {
              "internalType": "string",
              "name": "content",
              "type": "string"
            },
            {
              "internalType": "uint256",
              "name": "bounty",
              "type": "uint256"
            },
            {
              "internalType": "bool",
              "name": "done",
              "type": "bool"
            }
          ],
          "internalType": "struct CreateTask.Task[]",
          "name": "",
          "type": "tuple[]"
        }
      ],
      "stateMutability": "view",
      "type": "function"
    },
    {
      "inputs": [
        {
          "internalType": "uint256",
          "name": "_index",
          "type": "uint256"
        }
      ],
      "name": "sendRiward",
      "outputs": [],
      "stateMutability": "payable",
      "type": "function"
    },
    {
      "inputs": [
        {
          "internalType": "uint256",
          "name": "",
          "type": "uint256"
        }
      ],
      "name": "tasks",
      "outputs": [
        {
          "internalType": "address",
          "name": "user",
          "type": "address"
        },
        {
          "internalType": "uint256",
          "name": "due",
          "type": "uint256"
        },
        {
          "internalType": "string",
          "name": "content",
          "type": "string"
        },
        {
          "internalType": "uint256",
          "name": "bounty",
          "type": "uint256"
        },
        {
          "internalType": "bool",
          "name": "done",
          "type": "bool"
        }
      ],
      "stateMutability": "view",
      "type": "function"
    },
    {
      "inputs": [
        {
          "internalType": "uint256",
          "name": "_index",
          "type": "uint256"
        }
      ],
      "name": "viewTask",
      "outputs": [
        {
          "internalType": "address",
          "name": "",
          "type": "address"
        },
        {
          "internalType": "uint256",
          "name": "",
          "type": "uint256"
        },
        {
          "internalType": "string",
          "name": "",
          "type": "string"
        },
        {
          "internalType": "uint256",
          "name": "",
          "type": "uint256"
        }
      ],
      "stateMutability": "view",
      "type": "function"
    }
  ],
  "bytecode": "0x608060405234801561001057600080fd5b5061106c806100206000396000f3fe60806040526004361061004a5760003560e01c80633b3d7e561461004f57806373db06a11461008f578063779900b4146100ab5780638d977672146100d6578063d4c7d77d14610117575b600080fd5b34801561005b57600080fd5b5061007660048036038101906100719190610a5a565b610133565b6040516100869493929190610ca9565b60405180910390f35b6100a960048036038101906100a491906109f3565b610323565b005b3480156100b757600080fd5b506100c0610476565b6040516100cd9190610d4f565b60405180910390f35b3480156100e257600080fd5b506100fd60048036038101906100f89190610a5a565b6105ec565b60405161010e959493929190610cf5565b60405180910390f35b610131600480360381019061012c9190610a5a565b6106e7565b005b60008060606000808581548110610173577f4e487b7100000000000000000000000000000000000000000000000000000000600052603260045260246000fd5b906000526020600020906005020160000160009054906101000a900473ffffffffffffffffffffffffffffffffffffffff16600086815481106101df577f4e487b7100000000000000000000000000000000000000000000000000000000600052603260045260246000fd5b9060005260206000209060050201600101546000878154811061022b577f4e487b7100000000000000000000000000000000000000000000000000000000600052603260045260246000fd5b906000526020600020906005020160020160008881548110610276577f4e487b7100000000000000000000000000000000000000000000000000000000600052603260045260246000fd5b90600052602060002090600502016003015481805461029490610f0d565b80601f01602080910402602001604051908101604052809291908181526020018280546102c090610f0d565b801561030d5780601f106102e25761010080835404028352916020019161030d565b820191906000526020600020905b8154815290600101906020018083116102f057829003601f168201915b5050505050915093509350935093509193509193565b33925060003490506000806040518060a001604052808773ffffffffffffffffffffffffffffffffffffffff168152602001868152602001858152602001848152602001831515815250908060018154018082558091505060019003906000526020600020906005020160009091909190915060008201518160000160006101000a81548173ffffffffffffffffffffffffffffffffffffffff021916908373ffffffffffffffffffffffffffffffffffffffff1602179055506020820151816001015560408201518160020190805190602001906104039291906108be565b506060820151816003015560808201518160040160006101000a81548160ff02191690831515021790555050507f5871a8657186643882832fdeda0bfb3277984f8149b007b4867cb677ca4b77128585858585604051610467959493929190610cf5565b60405180910390a15050505050565b60606000805480602002602001604051908101604052809291908181526020016000905b828210156105e357838290600052602060002090600502016040518060a00160405290816000820160009054906101000a900473ffffffffffffffffffffffffffffffffffffffff1673ffffffffffffffffffffffffffffffffffffffff1673ffffffffffffffffffffffffffffffffffffffff1681526020016001820154815260200160028201805461052d90610f0d565b80601f016020809104026020016040519081016040528092919081815260200182805461055990610f0d565b80156105a65780601f1061057b576101008083540402835291602001916105a6565b820191906000526020600020905b81548152906001019060200180831161058957829003601f168201915b50505050508152602001600382015481526020016004820160009054906101000a900460ff1615151515815250508152602001906001019061049a565b50505050905090565b600081815481106105fc57600080fd5b90600052602060002090600502016000915090508060000160009054906101000a900473ffffffffffffffffffffffffffffffffffffffff169080600101549080600201805461064b90610f0d565b80601f016020809104026020016040519081016040528092919081815260200182805461067790610f0d565b80156106c45780601f10610699576101008083540402835291602001916106c4565b820191906000526020600020905b8154815290600101906020018083116106a757829003601f168201915b5050505050908060030154908060040160009054906101000a900460ff16905085565b6000151560008281548110610725577f4e487b7100000000000000000000000000000000000000000000000000000000600052603260045260246000fd5b906000526020600020906005020160040160009054906101000a900460ff16151514610786576040517f08c379a000000000000000000000000000000000000000000000000000000000815260040161077d90610d71565b60405180910390fd5b60003390508073ffffffffffffffffffffffffffffffffffffffff166108fc600084815481106107df577f4e487b7100000000000000000000000000000000000000000000000000000000600052603260045260246000fd5b9060005260206000209060050201600301549081150290604051600060405180830381858888f1935050505015801561081c573d6000803e3d6000fd5b507f6b9a28a11a6bf92d623d54370d7b04d29ef809d44684f18d1ac4fdc2fc1b93ef818360405161084e929190610c80565b60405180910390a1600160008381548110610892577f4e487b7100000000000000000000000000000000000000000000000000000000600052603260045260246000fd5b906000526020600020906005020160040160006101000a81548160ff0219169083151502179055505050565b8280546108ca90610f0d565b90600052602060002090601f0160209004810192826108ec5760008555610933565b82601f1061090557805160ff1916838001178555610933565b82800160010185558215610933579182015b82811115610932578251825591602001919060010190610917565b5b5090506109409190610944565b5090565b5b8082111561095d576000816000905550600101610945565b5090565b600061097461096f84610db6565b610d91565b90508281526020810184848401111561098c57600080fd5b610997848285610ecb565b509392505050565b6000813590506109ae81611008565b92915050565b600082601f8301126109c557600080fd5b81356109d5848260208601610961565b91505092915050565b6000813590506109ed8161101f565b92915050565b600080600060608486031215610a0857600080fd5b6000610a168682870161099f565b9350506020610a27868287016109de565b925050604084013567ffffffffffffffff811115610a4457600080fd5b610a50868287016109b4565b9150509250925092565b600060208284031215610a6c57600080fd5b6000610a7a848285016109de565b91505092915050565b6000610a8f8383610bec565b905092915050565b610aa081610e95565b82525050565b610aaf81610e4d565b82525050565b610abe81610e4d565b82525050565b6000610acf82610df7565b610ad98185610e1a565b935083602082028501610aeb85610de7565b8060005b85811015610b275784840389528151610b088582610a83565b9450610b1383610e0d565b925060208a01995050600181019050610aef565b50829750879550505050505092915050565b610b4281610e5f565b82525050565b610b5181610e5f565b82525050565b6000610b6282610e02565b610b6c8185610e2b565b9350610b7c818560208601610eda565b610b8581610fce565b840191505092915050565b6000610b9b82610e02565b610ba58185610e3c565b9350610bb5818560208601610eda565b610bbe81610fce565b840191505092915050565b6000610bd6600d83610e3c565b9150610be182610fdf565b602082019050919050565b600060a083016000830151610c046000860182610aa6565b506020830151610c176020860182610c62565b5060408301518482036040860152610c2f8282610b57565b9150506060830151610c446060860182610c62565b506080830151610c576080860182610b39565b508091505092915050565b610c6b81610e8b565b82525050565b610c7a81610e8b565b82525050565b6000604082019050610c956000830185610a97565b610ca26020830184610c71565b9392505050565b6000608082019050610cbe6000830187610ab5565b610ccb6020830186610c71565b8181036040830152610cdd8185610b90565b9050610cec6060830184610c71565b95945050505050565b600060a082019050610d0a6000830188610ab5565b610d176020830187610c71565b8181036040830152610d298186610b90565b9050610d386060830185610c71565b610d456080830184610b48565b9695505050505050565b60006020820190508181036000830152610d698184610ac4565b905092915050565b60006020820190508181036000830152610d8a81610bc9565b9050919050565b6000610d9b610dac565b9050610da78282610f3f565b919050565b6000604051905090565b600067ffffffffffffffff821115610dd157610dd0610f9f565b5b610dda82610fce565b9050602081019050919050565b6000819050602082019050919050565b600081519050919050565b600081519050919050565b6000602082019050919050565b600082825260208201905092915050565b600082825260208201905092915050565b600082825260208201905092915050565b6000610e5882610e6b565b9050919050565b60008115159050919050565b600073ffffffffffffffffffffffffffffffffffffffff82169050919050565b6000819050919050565b6000610ea082610ea7565b9050919050565b6000610eb282610eb9565b9050919050565b6000610ec482610e6b565b9050919050565b82818337600083830152505050565b60005b83811015610ef8578082015181840152602081019050610edd565b83811115610f07576000848401525b50505050565b60006002820490506001821680610f2557607f821691505b60208210811415610f3957610f38610f70565b5b50919050565b610f4882610fce565b810181811067ffffffffffffffff82111715610f6757610f66610f9f565b5b80604052505050565b7f4e487b7100000000000000000000000000000000000000000000000000000000600052602260045260246000fd5b7f4e487b7100000000000000000000000000000000000000000000000000000000600052604160045260246000fd5b6000601f19601f8301169050919050565b7f416c726561647920646f6e652e00000000000000000000000000000000000000600082015250565b61101181610e4d565b811461101c57600080fd5b50565b61102881610e8b565b811461103357600080fd5b5056fea2646970667358221220ad98e9d4bfc705a1769727275f2b1cbb6bf90d9955ece90dbb0f636852a2b78564736f6c63430008040033",
  "linkReferences": {},
  "deployedLinkReferences": {}
}