{
  "_format": "hh-sol-artifact-1",
  "contractName": "CreateTask",
  "sourceName": "contracts/Task.sol",
  "abi": [
    {
      "anonymous": false,
      "inputs": [
        {
          "indexed": false,
          "internalType": "address",
          "name": "user",
          "type": "address"
        },
        {
          "indexed": false,
          "internalType": "uint256",
          "name": "due",
          "type": "uint256"
        },
        {
          "indexed": false,
          "internalType": "string",
          "name": "content",
          "type": "string"
        },
        {
          "indexed": false,
          "internalType": "uint256",
          "name": "bounty",
          "type": "uint256"
        }
      ],
      "name": "NewTask",
      "type": "event"
    },
    {
      "inputs": [
        {
          "internalType": "address",
          "name": "_user",
          "type": "address"
        },
        {
          "internalType": "uint256",
          "name": "_due",
          "type": "uint256"
        },
        {
          "internalType": "string",
          "name": "_content",
          "type": "string"
        }
      ],
      "name": "createTask",
      "outputs": [],
      "stateMutability": "payable",
      "type": "function"
    },
    {
      "inputs": [],
      "name": "getAllTasks",
      "outputs": [
        {
          "components": [
            {
              "internalType": "address",
              "name": "user",
              "type": "address"
            },
            {
              "internalType": "uint256",
              "name": "due",
              "type": "uint256"
            },
            {
              "internalType": "string",
              "name": "content",
              "type": "string"
            },
            {
              "internalType": "uint256",
              "name": "bounty",
              "type": "uint256"
            }
          ],
          "internalType": "struct CreateTask.Task[]",
          "name": "",
          "type": "tuple[]"
        }
      ],
      "stateMutability": "view",
      "type": "function"
    },
    {
      "inputs": [
        {
          "internalType": "uint256",
          "name": "",
          "type": "uint256"
        }
      ],
      "name": "tasks",
      "outputs": [
        {
          "internalType": "address",
          "name": "user",
          "type": "address"
        },
        {
          "internalType": "uint256",
          "name": "due",
          "type": "uint256"
        },
        {
          "internalType": "string",
          "name": "content",
          "type": "string"
        },
        {
          "internalType": "uint256",
          "name": "bounty",
          "type": "uint256"
        }
      ],
      "stateMutability": "view",
      "type": "function"
    },
    {
      "inputs": [
        {
          "internalType": "uint256",
          "name": "_index",
          "type": "uint256"
        }
      ],
      "name": "viewTask",
      "outputs": [
        {
          "internalType": "address",
          "name": "",
          "type": "address"
        },
        {
          "internalType": "uint256",
          "name": "",
          "type": "uint256"
        },
        {
          "internalType": "string",
          "name": "",
          "type": "string"
        },
        {
          "internalType": "uint256",
          "name": "",
          "type": "uint256"
        }
      ],
      "stateMutability": "view",
      "type": "function"
    }
  ],
  "bytecode": "0x608060405234801561001057600080fd5b50610ca2806100206000396000f3fe60806040526004361061003f5760003560e01c80633b3d7e561461004457806373db06a114610084578063779900b4146100a05780638d977672146100cb575b600080fd5b34801561005057600080fd5b5061006b60048036038101906100669190610801565b61010b565b60405161007b94939291906109c4565b60405180910390f35b61009e6004803603810190610099919061079a565b6102fb565b005b3480156100ac57600080fd5b506100b5610422565b6040516100c29190610a10565b60405180910390f35b3480156100d757600080fd5b506100f260048036038101906100ed9190610801565b61057d565b60405161010294939291906109c4565b60405180910390f35b6000806060600080858154811061014b577f4e487b7100000000000000000000000000000000000000000000000000000000600052603260045260246000fd5b906000526020600020906004020160000160009054906101000a900473ffffffffffffffffffffffffffffffffffffffff16600086815481106101b7577f4e487b7100000000000000000000000000000000000000000000000000000000600052603260045260246000fd5b90600052602060002090600402016001015460008781548110610203577f4e487b7100000000000000000000000000000000000000000000000000000000600052603260045260246000fd5b90600052602060002090600402016002016000888154811061024e577f4e487b7100000000000000000000000000000000000000000000000000000000600052603260045260246000fd5b90600052602060002090600402016003015481805461026c90610b6c565b80601f016020809104026020016040519081016040528092919081815260200182805461029890610b6c565b80156102e55780601f106102ba576101008083540402835291602001916102e5565b820191906000526020600020905b8154815290600101906020018083116102c857829003601f168201915b5050505050915093509350935093509193509193565b3392506000349050600060405180608001604052808673ffffffffffffffffffffffffffffffffffffffff16815260200185815260200184815260200183815250908060018154018082558091505060019003906000526020600020906004020160009091909190915060008201518160000160006101000a81548173ffffffffffffffffffffffffffffffffffffffff021916908373ffffffffffffffffffffffffffffffffffffffff1602179055506020820151816001015560408201518160020190805190602001906103d2929190610665565b506060820151816003015550507fcefbef41b0f42f00b8d5e42eca7dc39458a6f13b40807577c67527fe448eb9048484848460405161041494939291906109c4565b60405180910390a150505050565b60606000805480602002602001604051908101604052809291908181526020016000905b8282101561057457838290600052602060002090600402016040518060800160405290816000820160009054906101000a900473ffffffffffffffffffffffffffffffffffffffff1673ffffffffffffffffffffffffffffffffffffffff1673ffffffffffffffffffffffffffffffffffffffff168152602001600182015481526020016002820180546104d990610b6c565b80601f016020809104026020016040519081016040528092919081815260200182805461050590610b6c565b80156105525780601f1061052757610100808354040283529160200191610552565b820191906000526020600020905b81548152906001019060200180831161053557829003601f168201915b5050505050815260200160038201548152505081526020019060010190610446565b50505050905090565b6000818154811061058d57600080fd5b90600052602060002090600402016000915090508060000160009054906101000a900473ffffffffffffffffffffffffffffffffffffffff16908060010154908060020180546105dc90610b6c565b80601f016020809104026020016040519081016040528092919081815260200182805461060890610b6c565b80156106555780601f1061062a57610100808354040283529160200191610655565b820191906000526020600020905b81548152906001019060200180831161063857829003601f168201915b5050505050908060030154905084565b82805461067190610b6c565b90600052602060002090601f01602090048101928261069357600085556106da565b82601f106106ac57805160ff19168380011785556106da565b828001600101855582156106da579182015b828111156106d95782518255916020019190600101906106be565b5b5090506106e791906106eb565b5090565b5b808211156107045760008160009055506001016106ec565b5090565b600061071b61071684610a57565b610a32565b90508281526020810184848401111561073357600080fd5b61073e848285610b2a565b509392505050565b60008135905061075581610c3e565b92915050565b600082601f83011261076c57600080fd5b813561077c848260208601610708565b91505092915050565b60008135905061079481610c55565b92915050565b6000806000606084860312156107af57600080fd5b60006107bd86828701610746565b93505060206107ce86828701610785565b925050604084013567ffffffffffffffff8111156107eb57600080fd5b6107f78682870161075b565b9150509250925092565b60006020828403121561081357600080fd5b600061082184828501610785565b91505092915050565b60006108368383610943565b905092915050565b61084781610aee565b82525050565b61085681610aee565b82525050565b600061086782610a98565b6108718185610abb565b93508360208202850161088385610a88565b8060005b858110156108bf57848403895281516108a0858261082a565b94506108ab83610aae565b925060208a01995050600181019050610887565b50829750879550505050505092915050565b60006108dc82610aa3565b6108e68185610acc565b93506108f6818560208601610b39565b6108ff81610c2d565b840191505092915050565b600061091582610aa3565b61091f8185610add565b935061092f818560208601610b39565b61093881610c2d565b840191505092915050565b600060808301600083015161095b600086018261083e565b50602083015161096e60208601826109a6565b506040830151848203604086015261098682826108d1565b915050606083015161099b60608601826109a6565b508091505092915050565b6109af81610b20565b82525050565b6109be81610b20565b82525050565b60006080820190506109d9600083018761084d565b6109e660208301866109b5565b81810360408301526109f8818561090a565b9050610a0760608301846109b5565b95945050505050565b60006020820190508181036000830152610a2a818461085c565b905092915050565b6000610a3c610a4d565b9050610a488282610b9e565b919050565b6000604051905090565b600067ffffffffffffffff821115610a7257610a71610bfe565b5b610a7b82610c2d565b9050602081019050919050565b6000819050602082019050919050565b600081519050919050565b600081519050919050565b6000602082019050919050565b600082825260208201905092915050565b600082825260208201905092915050565b600082825260208201905092915050565b6000610af982610b00565b9050919050565b600073ffffffffffffffffffffffffffffffffffffffff82169050919050565b6000819050919050565b82818337600083830152505050565b60005b83811015610b57578082015181840152602081019050610b3c565b83811115610b66576000848401525b50505050565b60006002820490506001821680610b8457607f821691505b60208210811415610b9857610b97610bcf565b5b50919050565b610ba782610c2d565b810181811067ffffffffffffffff82111715610bc657610bc5610bfe565b5b80604052505050565b7f4e487b7100000000000000000000000000000000000000000000000000000000600052602260045260246000fd5b7f4e487b7100000000000000000000000000000000000000000000000000000000600052604160045260246000fd5b6000601f19601f8301169050919050565b610c4781610aee565b8114610c5257600080fd5b50565b610c5e81610b20565b8114610c6957600080fd5b5056fea2646970667358221220c71c248febf9f88cbd584dcf57dab4967bc84d21aa3c7ed9744149d6897d9f9864736f6c63430008040033",
  "linkReferences": {},
  "deployedLinkReferences": {}
}